:10412300EE2430AB6BAA6CA96D221217D890000253
:07413300E41217D87F0222FD
:06416600AE071FEE600D24
:0D416C00752B480000152BE52B60EF80F847
:014179002223
:0A40DA00EF1FAC0670011E4C600ED3
:0C40E40075411E75422BD542FDD541FAF6
:0340F00080E82243
:0444530075C72022E7
:08332C008F6A8B6B8A6C896DBE
:10333400E56A75F06484FB75F064A4FFC3E56A9FD5
:10334400FFE495F0FE7C007D0A12180CEB75F06426
:10335400A4FEC3E56A9EFEEF75F00AA4FDC3EE9DCC
:10336400FEEB60242430AB6B1217C6EF124124909D
:1033740000011217D8EE24309000021217D89000E2
:1033840003E41217D87F0322EF60101241241217AE
:10339400C612412390000112412D2212412312171B
:0D33A400C6124126900001E41217D87F01E7
:0133B10022F9
:103D1400EFC4540FFEEF540FFFEED39409EE4005A9
:103D24002437FE80032430FEEE1217C6EFD3940925
:103D3400EF40052437FF80032430FF900001EF1289
:023D4400412D0F
:013D4600225A
:023C3D00C104C0
:103F560053A23F53873F759850438E40538EFE536E
:103F6600890F438920758BF8758DF8C2ABD28ED236
:043F7600ACD2AF22F8
:0300230002428313
:0D428300309802C298309904C299C20432EA
:080003002004FDD2048F9922B4
:103EE7008B358A368937AB35AA36A93712178060E2
:103EF700130537E5377002053614F9121780FF12DC
:053F0700000380E2222E
:10417A00E4F51AFB7A00791B12332C7B007A00795A
:04418A001B023EE7EF
:0E427500E4F531FB7A007932123D14023EE787
:1040BF002C000D0A00466F756E642E0D0A004E6FB0
:0B40CF007420466F756E642E0D0A0011
:103C3F0050044100000000000000000000000000E0
:033C4F0000000072
:10406800E52C131313541F2441F582E43404F5831B
:0E407800E022FFE52C5407FE7401A806082282
:07432C00D2B2124333D2B3F9
:044333007F40DFFEEA
:014337002263
:10402A0043B20C43B10C7E007F107D007B017A0401
:0F403A007941121CCDD2B3124333D2B2024333B9
:0D42900012432CC2B2124333C2B3024333B7
:02413A00AE07CE
:10413C007D08EE3392B212432EC2B3124333EE25F6
:04414C00E0FEDDEEC6
:01415000224C
:103FC2007D08D2B2124333D2B312433330B3FDEE83
:103FD20025E0FEA2B2E4334206C2B3124333DDE768
:023FE200AF0628
:013FE40022BA
:073FE5002AF8E6FF12413A41
:103FEC007DFF7C0012432C30B20BED1D70011CEDDB
:0B3FFC004C70F4D322C2B3124333C355
:014007002296
:0C433800A20092B212432EC2B302433323
:1040F3007D017C00C2B212432ED2B2124333ED1DB6
:0741030070011C144C70F761
:01410A002292
:023A7E008D2B8E
:0C3A80008F2C12402AE52CD3952B5035DA
:103A8C00124290E52C25E0123FE892001240F32000
:103A9C00001012406812407A8002C333D8FC4FF0F9
:103AAC00800F12406812407A8002C333D8FCF45F56
:013ABC00F019
:043ABD00052C80C490
:013AC10022E2
:0236DD008F2B31
:1036DF00E4FD74412D124071FF1242757BFF7A4059
:1036EF0079BF123EE70DBD10E97BFF7A4079C11219
:1036FF003EE7E52B12406AFD7C00E52B5407FF7473
:10370F00017E00A807088005C333CE33CED8F9FF5A
:10371F00EE5CFEEF5D4E7BFF60097A4079C4123E8E
:0B372F00E7D3227A4079CD123EE7C3B9
:01373A00226C
:10352800E54945487002FF22EF25E0F54AEBD394C0
:103538000240027B02EB24FE600804700BEDF54BA1
:103548008006ECF54BEDF54C0B124290E4FAEAC319
:103558009B5010744A123FE550061240F37F012237
:103568000A80EBAB450547E547AA467002054614B5
:10357800F9121780123FE8400DE549154970021508
:103588004814454870DD1240F3E54945487002FF8C
:03359800227FFF90
:01359B00220D
:1033B200E54945487002FF22EF25E0F54AEBD39438
:1033C2000240027B02EB6025BB0105EDF54B800656
:1033D200ECF54BEDF54C0B124290E4FAEAC39B502C
:1033E2000C744A123FE55002800E0A80EF1242909E
:1033F200E54A04123FE850061240F37F0122123FD1
:10340200C2AB450547E547AA467002054614F9EFE7
:103412001217C6E549154970021548144548700748
:10342200D2001243388007C20012433880D01240C3
:03343200F37F0025
:013435002274
:0B435C008FC48EC375C65A75C6A5221B
:0D429D00E4F5C7F5C5F5C675C380F5C4226C
:0F42260075C78075C50112435C00AFC212429D7F
:014235002266
:1041A20075C78075C5028FC48EC38DC2124360006D
:0341B20002429D29
:0D42AA0075C78075C50312435C0002429D7C
:103F9E00FF00FF10FF20FF30FF40FF50FF02FF1217
:103FAE00FF22FF32FF42FF52FF04FF14FF24FF34B3
:043FBE00FF44FF5469
:10423600F583E493FA740193F5828A83E4F0A3226A
:103F7A0043B28053B17F43960E5395F143BA80E41E
:103F8A00F5F1F5F590FFF2F090FFF004F0A3E4F0FC
:043F9A0053BA7F2275
:0A43930043BA8043F58053BA7F223D
:0A439D0043BA8053F57F53BA7F2224
:1042140043BA80530730E5F554C042078FF553BACB
:024224007F22F7
:103BC40043BA80EF25E0249EF582E4343F12423666
:103BD400F0EF25E024AAF582E4343F124236EDF0FA
:103BE400EF25E024B6F582E4343FF583E493FE74D4
:0E3BF4000193F5828E83E4F0A3F053BA7F2292
:1041B50053A2F35392C75391C7E4F5CF75CDC0759C
:0341C500CEDC222B
:0D42B7008FCFE5CD30E7FB75CDC0AFCF2236
:0D3C52000263000002610000035E0000003C
:03000B00023C02B2
:103C0200C0E0C0F0C083C082C0D075D008E56415A2
:103C12006470021563E564456370158561638562AE
:103C220064E55F4560455E6007AA5FA96012189966
:0B3C3200D0D0D082D083D0F0D0E032A0
:1041C800538E7F5389F0758A3C758CF6C28DD2A9BF
:0341D800D2AF2241
:0943BB008E638F648E618F622213
:074410008B5E8A5F896022C8
:03445F00D28C22DA
:03446200C28C22E7
:1034B200496E697469616C697A696E6720576969D6
:1034C20020436C617373696320436F6E74726F6C17
:1034D2006C65722E2E2E0D0A0052656164696E674C
:1034E2002049442E2E2E0D0A0049443D0020000D95
:1034F2000A0D0A0057696920436C6173736963207E
:10350200436F6E74726F6C6C657220496E69746978
:10351200616C697A6174696F6E2046696E6973685D
:0635220065642E0D0A0095
:043C5F00021000004F
:10400800754800754906E4FBFDFC7F5222754500A2
:1040180075460075472B225DFDEC5EFEED5F4E2474
:02402800FF2275
:01446F00222A
:102ECC007BFF7A3479B2123EE7752BF0752C5512D4
:102EDC00401575480075490212400E123528EF70E6
:102EEC00FD122F78752BFBE4F52CF545124018F5E7
:102EFC0048754902FBFDFC7F52123528EF70FD121C
:102F0C002F787BFF7A3479DB123EE7752BFA12406F
:102F1C001575480075490112400E123528EF70FDE9
:102F2C0075450075460075472B1240081233B2EFF9
:102F3C0070FD7BFF7A3479EB123EE7E4FD742B2DA8
:102F4C00F8E6FF1242757BFF7A3479EF123EE70DFB
:102F5C00BD06EA7BFF7A3479F1123EE77F017E00F1
:0C2F6C001240DA7BFF7A3479F6023EE76F
:082F78007F017E001240DA2205
:10303100E4F53BF54575460075473BF54875490193
:10304100FBFDFC7F52123528EF70FDE4FFFE1240BC
:10305100DA75450075460075473B1240081233B2D8
:10306100EF70FDE4FE743B2EF8E6FF12446F743BF3
:103071002EF8A6070EBE06EDE53B543FF512E53CE2
:10308100543FF513E53BC41313540333333354F85E
:10309100F514E53CC41313540325E04214E53DC483
:1030A10013131354014214E53D541FF515E53DC4B6
:1030B10013540333333354F8F516E53EC413540760
:1030C1004216E53E541FF517751800854019E5199C
:0F30D100751900F518E53F42196319FF6318FFE1
:0130E00022CD
:0943C40085181085191102303131
:074417007B007A00791222FC
:10424600E511F4FDE510F45518FCE51912401F229E
:0B436700E5185EFEE5195F4E24FF2202
:10425600E519F4FDE518F45510FCE51112401F228E
:06443300E51224E0FF2267
:06443900E51324E0FF2260
:0843E800E51425E024E0FF22AA
:0843F000E51525E024E0FF22A1
:1000260000B4009B0086008C00B00082007DFFFFBC
:1000360000AE0080009D00C9009000C600A8007DAB
:10004600FFFF001300A400A6007E0078009C00A01D
:1000560000AC00AE00C50085008BFFFF00AE00C5FA
:100066000085008BFFFF007E009C00BE00ADFFFFF9
:1000760000BC009800BE00ADFFFF00BC009800B9B0
:1000860000C2FFFF00A1009400AE008FFFFF00AE8C
:100096000080008E00C1FFFF0062000F006300BAFF
:1000A60000C00085008B00B60000006400AB008F26
:1000B6000000006500B2008700AE00C50085008B19
:1000C600FFFF007E009C00BE00ADFFFF007B007CB2
:1000D600FFFF0079007AFFFF0060FFFF0061FFFF6E
:1000E6000062FFFF0063FFFF0064FFFF0065FFFF84
:1000F6000066FFFF0067FFFF00680069FFFF006AF8
:10010600006BFFFF006C006DFFFF006E006FFFFFCE
:100116000076FFFF0077FFFF0078FFFF0060FFFF1C
:100126000061FFFF0062FFFF0063FFFF0064FFFF47
:100136000065FFFF0066FFFF0067FFFF00680069BC
:10014600FFFF006A006BFFFF006C006DFFFF006E93
:10015600006FFFFF00700071FFFF00720073FFFF6A
:1001660000740075FFFF00B5FFFF0062000F00631B
:1001760000A90099007B007C0092007E009C000094
:100186000060000F006100A900990079007A0092D2
:10019600007E009C00000064007F008A00AE008F95
:1001A60000830096009A00AE00C50085008B000013
:1001B60000650084007F008A00AE008F00C3009FA8
:1001C6000096009A00AE00C50085008BFFFF00BCBC
:1001D600009800BE00ADFFFF009E009900CA00BF58
:1001E60000BC0098FFFF005800C7009500B7FFFF4E
:1001F600005900C7009500B7FFFF0097FFFF00AF4B
:10020600FFFF0062000F006300BA00C000AE008F5F
:1002160000B600A500000060000F0061008E00C15E
:1002260000AE008F00C400000064007F008A00AEAC
:10023600008F00830096009A00AE00C50085008BF3
:10024600000000650084007F008A00AE008F00C3B6
:10025600009F0096009A00AE00C50085008BFFFF48
:1002660000BC009800B900C8FFFF00CB00C4001D09
:10027600FFFF00A700BD00A2001DFFFF0068006988
:10028600000F006A006B00BA00C000AE008F008D40
:1002960000BC009800000062000F0063008E00C1E1
:1002A60000CB00C400000060000F0061008E00C19A
:1002B60000A700BD00A200000064007F008A00AE17
:1002C600008F00830096009A00AE00C50085008B63
:1002D600000000650084007F008A00AE008F00C326
:1002E600009F0096009A00AE00C50085008BFFFFB8
:1002F60000A1009400AE008FFFFF00AE008F009CAF
:10030600FFFF00AA00B8009CFFFF00A1009400B107
:100316000091FFFF007B007CFFFF00B5FFFF006040
:10032600FFFF0061FFFF0062FFFF0063FFFF006445
:10033600FFFF0065FFFF0066FFFF0067FFFF006825
:100346000069FFFF006A006BFFFF006C006DFFFF96
:10035600006E006FFFFF0076FFFF0077FFFF00785B
:10036600FFFF00A300A4001100100088FFFF00A3F8
:1003760000A4001100150088FFFF00A300A40012CE
:1003860000100088FFFF00A300A4001200150088DB
:10039600FFFF00A300A4001300100088FFFF006207
:1003A600000F006300BA00C000AE008F00B600A5C3
:1003B60000000060000F0061008E00C100AE008FDB
:1003C60000C400000064007F008A00AE008F008336
:1003D6000096009A00AE00C50085008B00000065FF
:1003E6000084007F008A00AE008F00C3009F009645
:1003F600009A00AE00C50085008BFFFF00AE0080AE
:10040600008E00C1FFFF0089008E009300810091DD
:10041600FFFF00B3008E009300810091FFFF00A74D
:1004260000BB008100AE008FFFFF0011000F001916
:10043600FFFF0011000F0017FFFF0062000F0063AF
:1004460000BA00C000AE008F00B600A50000006034
:10045600000F0061008E00C100AE008F00C40000D6
:100466000064007F008A00AE008F00830096009A29
:1004760000AE00C50085008B000000650084007F8B
:10048600008A00AE008F00C3009F0096009A00AE5F
:1004960000C50085008BFFFFFF0026FF0036FF002A
:1004A60048FF0062FF006CFF0076FF0080FF008AB5
:1004B600FF0094FF009EFF00C8FF00D2FF00D8FF98
:1004C60000DEFF00E2FF00E6FF00EAFF00EEFF00AD
:1004D600F2FF00F6FF00FAFF00FEFF0104FF010A2B
:1004E600FF0110FF0116FF011AFF011EFF0122FF87
:1004F6000126FF012AFF012EFF0132FF0136FF010F
:100506003AFF013EFF0142FF0148FF014EFF015441
:10051600FF015AFF0160FF0166FF016CFF0170FFDA
:1005260001D4FF01DEFF01ECFF01F6FF0200FF022E
:1005360004FF0208FF0266FF0270FF0278FF0282D4
:10054600FF02F6FF0300FF0308FF0310FF031AFF75
:100556000320FF0324FF0328FF032CFF0330FF03C0
:1005660034FF0338FF033CFF0340FF0344FF034A05
:10057600FF0350FF0356FF035CFF0360FF0364FFA6
:100586000368FF0374FF0380FF038CFF0398FF03D8
:10059600A4FF0402FF040CFF0418FF0424FF043028
:1005A600FF0438FF04408000800180028003801031
:1005B6008011801280138020802180228023802455
:1005C60080258026802780308031803280338034B9
:1005D60080358040804180428050805180528053D7
:1005E600A3A1B0B4B1A3B1B8B1C8B1FAB2A2B2BBBB
:1005F600B2CBB2E2B3F6B4CEB4D6B4E6B5A5B5BDC9
:10060600B5C4B5F7B6A8B6AFB6C8B6CBB6D4B7A21A
:10061600B7B4B7B5B7F1B8CBBBBBBBD8BCECBCFC69
:10062600BDABBDBBBDD3BDF8C1ACC1BFC3BFC3EB82
:10063600C4BFC4DAC6ABC6F4C7D0C8A1C8B7C8EB36
:10064600C9E4C9E8CAC7CAD6CBD9CDCBCEA2CEB4E7
:10065600CEDECFEECFF2CFFBD0A3D1A1D1B9D2A1BE
:10066600D2C6D3B3D3D2D4F1D5FBD5FDD6B1D6B548
:10067600D6C3D6D8D6E1D7BCD7D4D7F3E3D0FFFFBD
:100686000000000000000000000000000000000064
:100696000000000000000004000400040004000440
:1006A6000000000400000000000A000A000000002C
:1006B6000000000000000000000000000000000A2A
:1006C600001F000A000A001F000A000A00000000BE
:1006D6000004001E0005000E00140015000E0004A4
:1006E60000000000000000030013000800040002E0
:1006F600001900180000000000000004000A000AAB
:1007060000060015000900160000000000040002A3
:1007160000000000000000000000000000000000D3
:1007260000080004000200020002000200040008A3
:10073600000000000002000400080008000800088D
:10074600000400020000000000000000000A00048F
:10075600001F0004000A0000000000000000000066
:1007660000040004001F0004000400000000000054
:10077600000000000000000000000000000000046F
:10078600000200000000000000000000000F000052
:100796000000000000000000000000000000000053
:1007A600000000000000000400000000000800082F
:1007B6000004000400020002000100010000000025
:1007C60000000006000900090009000900090006EA
:1007D60000000000000000040006000400040004FD
:1007E6000004000E000000000000000600090009D9
:1007F600000400020001000F0000000000000006D7
:1008060000090008000600080009000600000000B4
:1008160000000004000600050005000F00040004A7
:10082600000000000000000F0001000100070008A2
:100836000008000700000000000000060009000193
:100846000007000900090006000000000000000F74
:100856000009000800040004000400040000000071
:10086600000000060009000900060009000900064C
:10087600000000000000000600090009000E000844
:10088600000900060000000000000000000000044F
:10089600000000000004000000000000000000004E
:1008A6000000000400000000000400020000000038
:1008B6000000000800040002000100020004000815
:1008C60000000000000000000000000F0000000F04
:1008D600000000000000000000000001000200040B
:1008E6000008000400020001000000000000000EE5
:1008F60000110010000800040000000400000000C1
:100906000000000E0011001D001500190001001E58
:1009160000000000000000040004000A000A000EA7
:10092600000A001B00000000000000070009000983
:100936000007000900090007000000000000000E83
:100946000009000100010001000900060000000086
:1009560000000007000A000A000A000A000A000751
:10096600000000000000000F000900010007000160
:100976000009000F000000000000000F0009000140
:100986000007000100010001000000000000000E49
:1009960000090001000D0009000900060000000022
:1009A6000000000900090009000F000900090009FC
:1009B600000000000000000E000400040004000413
:1009C6000004000E000000000000000E00040004F9
:1009D60000040004000400030000000000000009F9
:1009E60000090005000300050009000900000000D9
:1009F6000000000100010001000100010009000FD4
:100A0600000000000000001B001B001B0015001565
:100A1600001500150000000000000009000B000B87
:100A2600000D000D0009000900000000000000068E
:100A3600000900090009000900090006000000007D
:100A4600000000070009000900070001000100017D
:100A56000000000000000006000900090009000B64
:100A6600000D00060008000000000007000900094C
:100A76000007000500090009000000000000000E44
:100A86000009000100060008000900060000000039
:100A96000000001F00150004000400040004000EFE
:100AA6000000000000000009000900090009000913
:100AB60000090006000000000000001B000A000AF2
:100AC600000A0004000400040000000000000015F5
:100AD600001500150015000A000A000A00000000B3
:100AE6000000001B000A000A0004000A000A001B9E
:100AF600000000000000001B000A000A00040004B9
:100B060000040004000000000000000F00090004BB
:100B1600000200020009000F00000000000E0002A3
:100B260000020002000200020002000E00000000A7
:100B36000001000100020002000400040008000891
:100B460000000000000E0008000800080008000869
:100B56000008000E000000000004000A000000006B
:100B6600000000000000000000000000000000007F
:100B7600000000000000000000000000001F000050
:100B86000004000800000000000000000000000053
:100B96000000000000000000000000060009000E32
:100BA6000009001E0000000000000001000100070F
:100BB600000900090009000700000000000000000D
:100BC6000000000E000900010001000E00000000F8
:100BD6000000000C0008000E000900090009000EC4
:100BE6000000000000000000000000060009000FE1
:100BF6000001000E000000000000000C00020002D0
:100C0600000F0002000200070000000000000000C4
:100C1600001E000900060001000F0011000E000072
:100C26000000000100010007000900090009000991
:100C3600000000000000000400000006000400049C
:100C46000004000E00000000000000080000000C78
:100C56000008000800080008000600000000000167
:100C66000001000D000500030005000D0000000056
:100C76000000000600040004000400040004000E46
:100C860000000000000000000000000F0015001525
:100C9600001500150000000000000000000000071D
:100CA600000900090009000900000000000000001A
:100CB6000000000600090009000900060000000007
:100CC60000000000000000070009000900070001FD
:100CD60000010000000000000000000E00090009ED
:100CE600000E000800080000000000000000001BC5
:100CF60000060002000200070000000000000000DD
:100D06000000000F000100060008000F00000000B0
:100D1600000000020002000F000200020002000CA8
:100D260000000000000000000000000900090009A2
:100D36000009001E00000000000000000000001B6B
:100D4600000A000A00040004000000000000000081
:100D56000000001500150015000A000A000000003A
:100D6600000000000000001B000A0004000A001B2F
:100D760000000000000000000000001B000A000A3E
:100D86000004000400030000000000000000000F43
:100D960000050004000A000F000000000006000223
:100DA600000200020001000200020002000600002C
:100DB600000400040004000400040004000400040D
:100DC60000040000000600040004000400080004FB
:100DD60000040004000600000016000900000000E0
:100DE60000000000000000000000000000000000FD
:100DF60000000000000000000000000000000000ED
:100E0600007C004401D701110161011101D70044A2
:100E1600007C0000007C004401D70111010D011186
:100E260001D70044007C0000007C004401C701019A
:100E3600016D011101D70044007C0000007C0044D4
:100E460001D70111016D010101C70044007C0000BA
:100E5600007C00FE01EF01D701BB018301BB00FE50
:100E6600007C0000007C00FE01C301BB01C301BB86
:100E760001C300FE007C0000007C00FE01BB01D720
:100E860001EF01D701BB00FE007C0000007C00FEE4
:100E960001BB01D701EF01EF01EF00FE007C00006E
:100EA60003F003F8037F037F037F037F007F03FFC5
:100EB60003FF000001FF01FF01FF01FF01FF01FF2A
:100EC60001FC01FF01FF000003FF03FF007F037F1A
:100ED600007F017F037F03FF03FF0000001F003F29
:100EE60001FE01FD01FE01FF01FC01FF01FF000003
:100EF60003F003F8020F037F03BF03DF020F03FFB4
:100F060003FF000001FF01FF01FE01FE01FE01FEDD
:100F160001E001FF01FF000003FF03FF020F037F53
:100F260003BF03DF020F03FF03FF0000001F003FA4
:100F360001F001EE01F001FA01E601FF01FF0000F8
:100F460003FF03FF010702BB02B700AF02B303FFB3
:100F560003FF000001FF01FF011301AA01B201AA6C
:100F660001AA01FF01FF000003FF03FF0103016D5A
:100F7600014B0167000903FF03FF000001FF01FFAA
:100F8600010401BB01BA01BB01A401FF01FF00007E
:100F960003FF03FF017701630041016B016303FF58
:100FA60003FF000001FF01FF01150182010201821A
:100FB600011501FF01FF0000007C00FE01EF01EFBB
:100FC600018301EF01EF00FE007C0000007C00FEC3
:100FD60001FF01FF018301FF01FF00FE007C00000D
:100FE600007C00FE01EF01C7018301D701C700FEA7
:100FF600007C000003FF03FF00CF02BF02DF02BF39
:1010060000CF03FF03FF000001FF01FF01E701FA24
:1010160001F601EE01F301FF01FF000003FF03FFEC
:1010260001DF015F015F015F02BF03FF03FF0000F5
:1010360001FF01FF01F501FF01F501F501F501FFD2
:1010460001FF000000000008000800080008000872
:101056000000000800000000002200FA008F0022B5
:1010660001FE005300520062009B000000FC008A53
:1010760000FA002301FE007200AA012600220000E9
:10108600007C00470038004C01FF009200FE0092F1
:1010960000FE00000022012200A2006E00220022B3
:1010A6000122012A01C6000001F4004401FF015497
:1010B600015E01B6011501140194000000440028E8
:1010C60000FE0024002401FF00240024002200006A
:1010D600000001FF0010001800540092009100105B
:1010E60000100000004401FF004400BE00A20054AE
:1010F60001FF0054019300000179014A0159015A88
:10110600015801520112012901A5000000100092A8
:10111600009200FE00100092009200FE0080000087
:10112600001101F2011200A8002000220022005145
:10113600018D000000F4009D00F6009F009400FE63
:101146000095009401FC0000001001FF000800E873
:10115600008401FE0045004400640000004400FED7
:10116600009200FE009200FE001001FF0010000039
:10117600011F010A015901570144015F0144011C85
:1011860001C300000044002201EF0119012F0149AB
:101196000149010F00C9000001F9014A01E8014BAC
:1011A60001EA01AA01EE010B01840000001001FF13
:1011B600010100FE001000F40014001A01E1000015
:1011C6000040004E01E0015F0144014A0152013F27
:1011D60001900000001001FE004A01FE004A00FED8
:1011E600004A003201CD0000015201F7000001F56E
:1011F600002501FA016E016B01A800000080008F36
:1012060001E8008A009400A4008A008900600000BA
:101216000054009201FE000800F8008C00520021E4
:1012260001DC000001C0003C000400FC00940094B6
:10123600006400620199000001F1001200F00093C1
:1012460000B2004A00AA011601F9000001FF0018C9
:1012560000D4011200FF0082008200FE008200001E
:10126600000400F4004F004401FE0056004500440F
:101276000044000000F2004A00FF00AA00AE01FB95
:1012860000220052018F000001FE0102017A014A8C
:10129600014A017A010201FE010200000022005209
:1012A600008F017200A700AB0092004201FA000015
:1012B600004201FE015101EF015A01F7005A0056A2
:1012C60001EA0000002400F5009E0064009601FD7E
:1012D6000095009400C40000000800FF00240042AE
:1012E60000A500240018002401C30000002201FA12
:1012F600009701FA002601FB00920062009B0000A5
:101306000091009201F8009301FE00920092008A7B
:1013160001FD0000002101FA0020005301FA0042FD
:1013260001FA004201FD000000FE008200FE00827C
:1013360001FF009200FE001001FF0000000201FE06
:10134600000100FE009201FF009201FE00C00000B5
:101356000048004700E4016F0056014E0145008435
:1013660000740000000000FE008200FE008200FE05
:10137600008200FE008200000010001000FE0092B5
:10138600009200AA00C6008200C20000002400FAF3
:10139600008A00FB000A01FA012E01FA01AA0000E8
:1013A6000008001000FE008200FE000200FA008A1B
:1013B60000F90000000201F2012F01220122012A98
:1013C6000116011200C80000001F00EA008E00AAE4
:1013D60000AE00AA005E006B0098000001EF0094CA
:1013E60001F2015F01FA015A01FA015E0192000061
:1013F6000000000C001000100028002800440042E5
:10140600018100000084009E01F2009E00B200DF10
:101416000094009200D9000000F100920090018B28
:1014260000FA009200920066019A0000007C0044D7
:10143600007C004401FF001000F2001601F90000D4
:101446000060001E001000FE001001FF00100010DA
:10145600000C0000002101FA002000FB00AA00FA9F
:10146600007200AA01FD000000F9008A00F8008B56
:1014760000FA00AA005A008A01FD0000008A00AAAC
:1014860001FD0142017F014200BA00EA0126000087
:101496000010001000FE001001FF003800540193F8
:1014A6000010000000FE0008000801FF00280028C8
:1014B6000124012201C1000001F0004701F20112DE
:1014C60001520152015600A1011800000010000847
:1014D60001FE0102017A014A017A0102018200003D
:1014E600015200E401F1011201F4011201F20111AD
:1014F60001910000004401F400AF011400AE00A504
:10150600004400A401140000002900FA002401FB95
:101516000052015201CA000601F90000000001FE56
:101526000012001200FE00120052009201FD00009F
:1015360001FA012A00D701F2004E01FB0042014ADE
:1015460001FB0000002800E70094006F01D4012E83
:1015560000D60045003400000040004701F5015563
:10156600015701FD004500A7011900000008000809
:1015760001FF000800FC0086008500FC00840000D6
:1015860001FA00920067019A004601F3004201FA4F
:1015960000430000004401DF0176009E015500FE75
:1015A6000070001401FF0000000001FF0010001091
:1015B60000F200120012001201FF0000000800FFF6
:1015C600003C0042007E0042007E004201FF000017
:1015D600004801F40064009600F5009400F40094BD
:1015E60001FC000000FE00AA01FF001000FE0082C0
:1015F60000FE008201FF000000FE001001FF0092C5
:1016060000FE009200FE001001FF00000042004FA5
:1016160001F60155015F01F4015F015401F4000078
:10162600005101FA004C01F8004A01FA004901F99B
:1016360000080000000800FE008200FE008200FE96
:10164600008200FE008200000008000801FF00087A
:10165600000400FC0022002101FE000001F90162E5
:1016660001FF012101AF0169012F015900C50000E9
:1016760001FF01C701BB01BB01DF01EF01FF01EF64
:0416860001FF000060
:10360F00FF3395E0FEEF25E0FFEE33FEED3395E05F
:10361F00FCC3EF9DEC6480F8EE648098220543C3F1
:10362F00E4953BFFE49400FEC3E5409FEE6480F811
:10363F00E53F6480982275F003A4249EF582E5F09F
:10364F003404F583E493FB740193FA74029322AB71
:10365F003CAA3DA93E854382758300121799FF331B
:0F366F0095E022D3E540947FE53F64809480226C
:07441E00C290C2910242B7F7
:07442500C290D2910242B7E0
:0943CD005392F85391F8023AC230
:0F4266007E047F007D007B017A007900021CCD71
:03446500023DDA3B
:05443F00A20092922290
:043C7500AD07AC06E5
:103C7900E4FBFAEB25E0FFEA33FE74AC2FF582741E
:103C8900053EF5837401936D7003E4936C600B0B2F
:103C9900BB00010AEB646D4A70D9EB2460FFE43A7A
:013CA900FE1C
:013CAA0022F7
:103A38008F488C498D4A8B4BEF75F002A4F582852F
:103A4800F083E54A25E0FFE54933FEAD487C0012E6
:103A580017FA74862FF974063EFA7BFF78007C0407
:103A68007D01AE83AF8212175AA2019202AB4CAD10
:063A78004BAF480225845B
:0832A5008F3B8B3C8A3D893E02
:0332AD00E4F54302
:1032B00012365EF5448F454545700122C3E54594BD
:1032C00080E5449400501D12362C40121236725084
:1032D0000DE54524E0FDE54434FFFC12331DE53BDC
:1032E000C313802DE545754500F544054312365E50
:1032F000FEEF4245EE424412362C40131236725015
:103300000EAF45AE44123C75AC06AD0712331DE559
:0A3310003B2540F540E4353FF53F52
:03331A000232B0CC
:0F331D00AB4085424CA2009201AF3B123A3822DE
:06321A008F3C8A3E8B3F51
:10322000E4F542ED1236458B438A44F545AB43AA9B
:1032300044A94575F002E542A4F58285F083121891
:0B32400061FFAEF0F47002EEF4605984
:10324B008E468F470542C3E4953CFFE49400FEC3D2
:10325B00E53F9FEE6480F8E53E648098401FD3E520
:10326B003F947FE53E648094805012AB3F85414C88
:10327B00A2009201AD47AC46AF3C123A38C3E547CA
:10328B009460E5469400E53C5004C3138000253F51
:07329B00F53FE4353EF53E6E
:0232A200808921
:0132A4002207
:07442C00A205920A023B45C4
:022C76008B577A
:102C7800C3E5579FF559C3E5589DF55AD3E55964FF
:102C880080948040047E0180027E00EE25E014F5E9
:102C98005BD3E55A6480948040047E0180027E0004
:102CA800EE25E014F55CAB07A905E4F55DD3E5591D
:102CB800648094804004AF598005E559F404FF8F7F
:102CC80059D3E55A648094804004AF5A8005E55A88
:102CD800F404FF8F5AD3E55A6480F8E55964809864
:102CE8004026E5576B6047122D37E55A255DF55D9F
:102CF800AD5912360F400BE55C29F9C3E55D9559CE
:102D0800F55DE55B2BFB80DAE558696021122D370C
:102D1800E559255DF55DAD5A12360F400BE55B2B85
:0E2D2800FBC3E55D955AF55DE55C29F980DA9F
:0D2D360022AF03AD01A206920512442C222B
:0A43A700853F43A2009201022A1D87
:042E09008F65A90523
:102E0D00E4F566F567EB756800F569C374019BFB26
:102E1D00D3E5699567E5666480F8E5686480984058
:102E2D0062E5652567122E91E5652569122EBA12A8
:102E3D002E91C3E5659569122EBA122E9EC3E565D6
:102E4D009569122EACE5652567122E9EE5652569FF
:102E5D00122EACC3EB64809480500AE56725E02404
:102E6D00032BFB8013C3E567956925E024052BFB38
:102E7D00E5691569700215680567E5677092056665
:032E8D00022E1DF5
:102E900022FFE56929FDA207920512442C22FFC3F7
:102EA000E99569FDA207920512442C22FFC3E9951A
:102EB00067FDA207920512442C22FFE56729FDA2B7
:0C2EC00007920512442CC3E565956722BB
:043952008F3CAF05F2
:0D395600E4FDFCEF123645F9E4F53DF53EC9
:10396300053EE53EAE3D7002053D1425E0FFEE3316
:103973008F82F583121861F54085F03FB4FF07E5A8
:103983003FB4FF028018C3E5409460E53F9400E52F
:0C3993003C5004C31380002DFDE43CFCFC
:06399F0080C2AE04AF057A
:0139A50022FF
:103F0C000001020000800100004010004000080089
:103F1C0020000020000280000400000400100008B3
:053F2C0064423228216F
:073C6300026E000001700079
:103D470074282522F582E43404F583E0FF74017EAC
:103D570000A8070822E0F9FF3395E0FEEF22E0FB19
:103D67003395E0FAAD03FC0217FACEA2E713CE13A0
:013D77002229
:044457006370FF226D
:0D42C4007594FF7593FF75B4FF75B3FF226D
:103E0B0090043CE0FF3395E0FE742C2FF582743F59
:103E1B003EF583E493FF7E001243BB7BFF7A44792C
:0F3E2B005712441012445F7F0F12421402439348
:1020A800E4F523F524F525F526F527F528F529F592
:1020B8002AF52BF52C12410B90043AE0FF603B12F5
:1020C80023985036E4F52290043AE065226020A374
:1020D800E06522601A1223B8501574017E00A82208
:1020E800088005C333CE33CED8F9426FEE426E0571
:1020F80022E522C3941040CF804690043BE0FF6065
:102108003F122398503AE4F52290043AE0652260A1
:1021180026A3E0652260201223B8501B74017E00BC
:10212800A822088005C333CE33CED8F9F4FFEEF4E5
:10213800FEEF526FEE526E0522E522C3941040C99D
:10214800E4F522E52225E0240EF582E4343FF58308
:10215800E493FE740193FF1243675011123D4780C8
:1021680005C333CE33CED8F94224EE4223E5220408
:10217800123D538005C333CE33CED8F9FFE56E5EEA
:10218800FEE56F5FFFAD70EF5D6017123D4780059C
:10219800C333CE33CED8F9F4FFEEF4FEEF5224EE7B
:1021A80052230522E522C3940F4098E524F4F580D4
:1021B800E523F4F5C0900437E0602E124433EF3382
:1021C80095E0F5298F2A124439EF3395E0F52B8FE6
:1021D8002C1243E8EF3395E0F5258F261243F0EFF4
:1021E8003395E0F5278F28802C124433EF3395E0A0
:1021F800F5258F26124439EF3395E0F5278F2812FD
:1022080043E8EF3395E0F5298F2A1243F0EF339531
:10221800E0F52B8F2C900438E06016C3E49526F582
:1022280026E49525F525C3E4952AF52AE49529F5AC
:1022380029900439E06016C3E49528F528E4952729
:10224800F527C3E4952CF52CE4952BF52BAE25AF9B
:102258002690043D123D658E258F26E526780612C8
:102268003D71D8FBF5268E2590043E123D5C25264F
:10227800F526EE3525F525AE27AF28AD03AC0212BD
:1022880017FA8E278F28E5287806123D71D8FBF5B6
:10229800288E27E9123D5E2528F528EE3527F527F3
:1022A800C3E525648094805005E4F525F526D3E53B
:1022B8002694FFE5256480948040067525007526E0
:1022C800FFC3E527648094805005E4F527F528D3FB
:1022D800E52894FFE52764809480400675270075FB
:1022E80028FFAE29AF2A90043F123D658E298F2A18
:1022F800E52A7806123D71D8FBF52A8E299004400C
:10230800123D5C252AF52AEE3529F529AE2BAF2C8E
:10231800AD03AC021217FA8E2B8F2CE52C7806121F
:102328003D71D8FBF52C8E2BE9123D5E252CF52C42
:10233800EE352BF52BC3E529648094805005E4F530
:1023480029F52AD3E52A94FFE5296480948040067C
:10235800752900752AFFC3E52B648094805005E435
:10236800F52BF52CD3E52C94FFE52B648094804065
:1023780006752B00752CFFAD26E4FF123BC4AD2873
:102388000F123BC4AD2A0F123BC4AD2C0F023BC445
:102398003395E0FEEF25E0FFEE33FE740C2FF58257
:1023A800743F3EF583E493FE740193FF1243672262
:1023B800E52225E0240CF582E4343FF583E493FE1E
:0823C800740193FF1243672228
:0843F8003344535769692B009F
:103E95007428253CF582E43404F5832278207C04DB
:103EA5007D017BFF7A4379F822E0C3648094802208
:0A3EB500E05480F0A3E05480F022F6
:103B8500E4FDED2400FFE434F2FE12422674202DFC
:103B9500F582E43404F583EFF00DBD08E5123EA18E
:103BA500121A1DEF60187E007F217D007B017A04CB
:0E3BB5007920121CCD123EA1121B06123D7883
:013BC30022DF
:102F8000E4F53CE4253CFFE434F2FE124226E53C45
:102F90007C007B012420F9EC3404FAEF1217C605FB
:102FA0003CE53CC3942140DBE4F53C123E95E0D384
:102FB0006480948E4006123E95740EF0123E951277
:102FC0003EAE5006123E95740EF0053CE53CB40F43
:102FD000DA900437E05401F0A3E05401F0A3E05488
:102FE00001F0A3E0D36480948F4002E4F090043AAF
:102FF000123EAE5002E4F090043BE0D36480948F24
:103000004002E4F090043B123EAE5002E4F0900423
:103010003CE0D36480948440037404F090043C1238
:103020003EAE5002E4F090043D123EB5A3123EB510
:01303000227D
:103D7800E4F53BFF7EF21242AAE53BC394215020B2
:103D8800E4253BFFE434F2FE7C007B017420253BF4
:103D9800F9EC3404FA121780FD1241A2053B80D9D0
:013DA80022F8
:084400000D0A0010101010104D
:0C434400C2B57BFF7A4479037534052272
:0D42D10053B28F53B18FC2B5D2B4D2B62212
:0C42DE00C2B41242B7E4FF1242B7D2B4DF
:0142EA0022B1
:0241DB00AE052F
:1041DD00C2B41242B7AD07AF061242B7D2B4AF05A3
:0141ED0022AF
:063DA9008B3C8A3D893EBF
:103DAF00C2B41242B7AE07E4FDEDC3953F5017E41E
:103DBF00FF1242B7AB3CAA3DA93E8D82758300EF3F
:0A3DCF001217D80D80E3D2B4AF063E
:013DD90022C7
:063E3A008B318A3289334E
:103E4000C2B41242B7AE07E4FDEDC395345015ABD2
:103E500031AA32A9338D82758300121799FF12425D
:083E6000B70D80E5D2B4AF06F6
:013E68002237
:1039A600E4FD1243467F30123E3A7B007A00792BC3
:1039B600753F057F10123DA9E4FD742B2DF8E6FF37
:1039C6001242750DBD05F37BFF7A447900123EE77E
:1039D60078037C447DFF7B007A00792B7E007F058F
:0A39E600121CA9EF7003D38001C387
:0139F00022B4
:103B04001243447F30123E3A1243467F2A123E3A11
:103B14007D087F311241DB7D017F211241DB7D0174
:103B24007F221241DB7D0A7F241241DBE4FD7F25E5
:103B34001241DB7D0F7F261241DBD2B57F010241AA
:013B4400661A
:103CAB001243447F2A123E3A7D087F311241DB7D5D
:103CBB00017F211241DB7D017F221241DBE4FD7F7D
:103CCB00251241DB7D0F7F261241DB7D0F7F2012FA
:053CDB0041DBD2B5221F
:0638A6008B718A72897328
:1038AC001243447F30123E3A1243467F2A123E3A6C
:1038BC00AB71AA72A9737534087FA0123E3A7D0EC3
:1038CC007F201241DBD2B520B6FD7F071242DE8F7E
:1038DC001FE51F30E409E4FD7FE11241DB7C01E5CB
:0F38EC001F30E502E4FCAD1F7F271241DBAF0464
:0138FB0022AA
:103EBF007C017F071242DE8F1FE51F30E609753F39
:103ECF00087F61123DA91CE4FD7FE21241DBAD1FAB
:073EDF007F271241DBAF0455
:013EE60022B9
:04445B001242DE2209
:084408003344535769692B008E
:043C6A0041045100C0
:10367E00E4900451F07D7FFF123A7E7F521236DDC8
:10368E00500B122ECC900451E04401F0221242D184
:05369E001239A65039AD
:1036A300123CABE4F52A7B007A007922123EBFEF8D
:1036B300701978227C00FD7BFF7A447908121A1D69
:1036C300EF7008900451E04402F0227F0A12416631
:0936D300052AE52AC394FF40CD4D
:0136DC0022CB
:10410B00900451E030E0031243C4900451E030E1DD
:08411B0006124417123EBF22F8
:0B437200900451E07003C38001D322CF
:1030E100ED75F010A4FFEC7A002FFFEA35F0FE74C5
:1030F100002FF58274003EF583E0FF22E0FDE550EC
:1031010025E02400F582E43404F58322740025537C
:10311100F58274003552F58322E54F25502401FFD5
:10312100E433FEEFC4F8540FC868FFEEC454F0480E
:10313100FEC3E5539FEE6480F8E5526480982274E3
:1031410008C39554FFE0FEA3E0A8070822ED75F03F
:1031510010A4FFEC22F58274003EF58322C37408AB
:103161009547FE74FFA8060822C3E5526480948047
:10317100227A00FFEA35F0FE74002F22AF51EF33BF
:0D31810095E022EC5407FE7401A806082218
:1041EE00AE07EE540FFF12441EEEC4540F4410FFE0
:0341FE0002441E5A
:0D42EB002000047F2D80027F2F12441E2230
:0943D600EF54074430FF02441EBD
:0D42F8002008047F3880027F3912441E2206
:0D4305002009047F3A80027F3B12441E22F3
:0D4312002000047F3C80027F3D12441E22EB
:10000E00AE07EE540F4440FF12441EEEC4540F448C
:05001E0050FF02441E2A
:104086007F60300003430708300103430704300212
:0D4096000343070230030343070102441EE9
:054444007F7602441E1A
:10415100AE07EE540F4490FF12441EEEC4540F44B8
:05416100A0FF02441E56
:0943DF00EF541F44C0FF02441E0C
:0C435000AE077FB112441EAF0602441EEF
:10420100AE05AD077FB212441EAF0512441EAF06C4
:0342110002441E46
:054449007FE302441EA8
:10418E007F8812441E7F8812441E7F8812441E7F31
:04419E008802441E31
:0D431F002000047F6080027F6112441E2296
:05444E007FE302441EA3
:103AC200C2907F647E001240DAD2001242EB7F0382
:103AD2001243D67FDF1243507D017F901242017F55
:103AE20040124151C200C201C202C203124086D238
:103AF2000012431212418EC20012431F12444ED2D0
:023B020090220F
:103DDA00C290E4FDAF051241EEE4FF1243DFE4FCBA
:103DEA0012314EFBC3740F9BCBE49400CB2FFFEB35
:103DFA001230ED1244250CBC10E60DBD40D6D2900F
:013E0A002295
:062584008F4D8D4E8B4FC0
:10258A00E54DF404FFC36480F8E54E648098500278
:10259A008F4ED3E54E648094FF4003022735C3EF84
:1025AA006480F8E54F64809850028F4FD3E54F64FA
:1025BA008094BF4003022735E54E7803A2E713D87B
:1025CA00FBF551E4F550E550C3954D40030227351C
:1025DA007E00AD4FED3395E0FCED2550FFEE3CFE5D
:1025EA00C3648094805003022730C3EF9440EE64A2
:0825FA008094804003022730A9
:10260200E54F255075F010A4FFAEF0AD51ED3395B6
:10261200E0FCEF2DF553EE3CF552E54E5407F55430
:1026220012317DC364809480404612316B40413048
:10263200021D12310DC083C082E0FF1230FFA3E001
:10264200FEAD54A805088002C333D8FC4F801C128B
:10265200310DC083C082E0FF1230FFA3E0FEAD5413
:10266200A805088002C333D8FCF45FD082D083F07F
:102672000553E5537002055212317DFEEF2401E449
:102682003EC364809480404612311A4003022730D0
:1026920012316A403930021912310DC083C08212E0
:1026A20030FD1231408005CEC313CE13D8F94D80D0
:1026B2001812310DC083C0821230FD1231408005E4
:1026C200CEC313CE13D8F9F45DD082D083F0055374
:1026D200E5537002055212317DFEEF2402E43EC33F
:1026E20064809480404812311A504312316A403E4D
:1026F20030021B12310DC083C0821230FD741012E1
:1027020031428005CEC313CE13D8F94D801B12314E
:102712000DC083C0821230FDC37410123143800594
:0E272200CEC313CE13D8F9F45DD082D083F06D
:0527300005500225D058
:012735002281
:103B4500AC07ECD3947F5037EDD3943F5031300A16
:103B55001712314E131313541F1230E8123184809B
:103B650002C333D8FC4FF02212314E131313541FE6
:103B75001230E81231848002C333D8FCF45FF0229E
:062A1D008D418B42A90768
:102A2300E9D3947F4003022B6AE92542FFE433FE96
:102A3300D3EF9480EE648094804005748099F542CE
:102A4300E541D3943F4003022B6AE5412543FFE46C
:102A530033FED3EF9440EE64809480400674409537
:102A630041F543AD41E5412543FFE433FEEDC39F0B
:0C2A7300EE6480F87480984003022B6A27
:102A7F00E9131313541FF544E92542FFE433FEEF26
:102A8F007803CEA2E713CE13D8F8F545E95407F52E
:0E2A9F0046E542295407F547E5446545703E7B
:102AAD00F548AC46ECC3954750107401A804088056
:102ABD0002C333D8FC42480C80EAED75F010A42512
:102ACD004412317230010A123156E04548F0022BA2
:0B2ADD00661230F3E548F4FEEF5EF0F7
:102AE800022B66AC44ECD395455073EC6544702AD0
:102AF8003001151230E1AE4674FFA806088002C303
:102B080033D8FC4FF0022B621230E1AE4674FFA8B6
:102B180006088002C333D8FC8024EC654570243055
:102B280001101230E112315E8002C313D8FC4FF05D
:102B380080281230E112315E8002C313D8FCF45FA2
:102B4800F0801712314E2F123172300108123156AF
:0E2B580074FFF08005123156E4F00C022AEDF5
:042B66000D022A68CA
:012B6A002248
:033C6E00017401DD
:103F3100E4F594F593F592F591F596F595F5B2F5CD
:103F4100B1F5B4F5B37580FF7590FF75A0FF75B03D
:053F5100FF75C0FF2216
:10343600123F31123F5612402A123F7A1241C812E9
:1034460041B51242C41243CDC20012443F123B851D
:1034560012367E124266E57414B4080050F59034B4
:103466007275F003A4C58325F0C5837302348A02FE
:10347600348F02349402349902349E0234A3023407
:10348600A80234AD12379980CA1239F180C51243A9
:103496008880C0122B6B80BB12273680B61228AAF2
:0C34A60080B1121CF980AC1223D080A76A
:014470002229
:10379900124470124372500475740222124266E494
:1037A900FD1237D8754116D200E4FD7F0A12321A8C
:1037B9007D011237D8754120D2007D017F0A12326E
:0E37C9001A1244657FE87E031240DA12445360
:1037D700227F0A123952EF24FFFFEE34FFFEC37433
:0F37E700809FFFE49EC313FAEF13FB754000228F
:033C7100017504D6
:03446800157522A5
:103CE0007FE87E031243BB7BFF7A4479681244105D
:103CF00012445F753F1ED2007B7E7D117F0112430F
:103D0000A775400075411BC2007B077A007D027FCA
:043D10000A02321A57
:1039F100123CE0753F0AD2007B057D1B7F07124315
:103A0100A7AF75EF2410FDE433FC754C1BC2017B9D
:103A1100077F0A123A3812446512410B7F087E0073
:103A2100124246500712446275740422E57570C350
:073A310012446275740322C8
:0B437D00122F80D20012443F02446562
:0B43880012437D123E0B1220A880FBA8
:1038FC007D037F0A123952EF14F527C37480952784
:10390C00C31314FFE5272402FB753F0BD200E4FD23
:10391C001243A7753F01D2007B807D0CE4FF12435C
:10392C00A7753F01D2007D34E4FF1243A7C3748016
:10393C009527C313FB7A00754000754101C2007DC9
:06394C00037F0A02321A9B
:0B2B6B00E4F522752308F5241238FC65
:102B7600E5222404FD122C5F7D1BE4FF1243A7E52A
:102B8600222404FDC374809526FFE49525A2E7134D
:102B9600FAEF13FB75400075411BD2007F0A123213
:102BA6001A7D09122C5F7D36E4FF1243A7E524AE99
:102BB600237804CEA2E713CE13D8F8FBAA067540F5
:102BC60000754136D2007D097F0A12321A74F82543
:102BD60024F52474FF3523F523E526C4F8540FC8DD
:102BE60068FFE525C454F048FEC3E49FFFE49EFE5B
:102BF600C3E5249FEE6480F8E5236480985006754B
:052C0600230875240005
:102C0B0012446512410B7F007E01124246500E1595
:102C1B0022C3E5226480948050037522037F407E9B
:102C2B0000124246500E0522C3E522648094844074
:102C3B0003E4F5227F007E101242465007E5222462
:102C4B0005F574227F007E401242464003022B762C
:032C5B007574038A
:102C5E00227F0A123952EF24FFF526EE34FFF525B6
:082C6E00753F0AC2007B8022C1
:02446B003D0012
:10404900AF25EF3395E0FE74282FF58274043EF511
:0F4059008322FBE433FA75400075410CD200223C
:03359C00122F806B
:10359F007D0A7F0A123952EF14F52AC37480952AD7
:1035AF00C31314FFE52A2402FB753F0BD200E4FD81
:1035BF001243A7C37480952AC313FB7A007540008A
:1035CF00754101C2007D0A7F0A12321A12405FE470
:1035DF00FBFA7D0B7F0A12321A7BFF7A44796B75E7
:1035EF003F0075403D75410075420CD2007F0A12B5
:1035FF0032A512405F7B597A007D0C7F0A02321A86
:0D273600E4F522752308F524F52512359CE5
:10274300E525240D1228A214F526124049E0241C85
:102753001228A214F5277D2C7F0A123952EF24FF89
:10276300F529EE34FFF528753F0AC2007B147D0C72
:102773007F141243A7753F0AC2007D0C7F6D12437D
:10278300A7E525240DFDC374149526C31324141241
:10279300405B7F0A12321A124049E0241CFDC374C5
:1027A300149527C313246D12405B7F0A12321A75E6
:1027B3003F0AC2007B807D16E4FF1243A7E524AEE7
:1027C300237804CEA2E713CE13D8F8FBAA067540EC
:1027D30000754116D2007D2C7F0A12321A74F82537
:1027E30024F52474FF3523F523E529C4F8540FC8D1
:1027F30068FFE528C454F048FEC3E49FFFE49EFE4F
:0F280300C3E5249FE5239E500675230875240026
:1028120012446512410B7F007E01124246500E1592
:1028220025C3E52564809480500375250E7F407E84
:1028320000124246500D0525E5256480948E400322
:10284200E4F5257F007E021242465017124049E00D
:1028520014F0124050E0C364809480500612404B42
:10286200740FF07F807E001242465016124049E0FB
:1028720004F0124050E0D36480948F400512404B24
:10288200E4F07F007E101242465005123D78800C23
:0F2892007F007E401242464003022743757404C4
:0928A10022FD7F0A123952EF22D8
:02446D003D0010
:0A43B100FD75400075410CD200229A
:0337F600122F800F
:1037F9007D2D7F0A123952EF14F527C3748095275E
:10380900C31314FFE5272402FB753F0BD200E4FD27
:103819001243A7C374809527C313FB7A0075400030
:10382900754101C2007D2D7F0A12321A7BFF7A444D
:10383900796D753F0075403D75410075420CD200A8
:053849007F0A0232A518
:0C28AA00752208752300E4F5241237F6AF
:1028B600753F0AC2007B3C7D0CE4FF1243A7E5246A
:1028C600242E1243B1E4FBFA7F0A12321A753F0A2C
:1028D600C2007B317D0C7F4F1243A7E52414600CA8
:1028E60014600E2402701C9004378008900438800F
:1028F60003900439E024311243B17B777A007F0AD2
:1029060012321A7D337F0A123952EF24FFF526EE72
:1029160034FFF525753F0AC2007B807D16E4FF1261
:1029260043A7E523AE227804CEA2E713CE13D8F848
:10293600FBAA06754000754116D2007D337F0A1248
:10294600321A74F82523F52374FF3522F522E5267D
:10295600C4F8540FC868FFE525C454F048FEC3E424
:102966009FFFE49EFEC3E5239FE5229E5006752247
:0429760008752300BD
:10297A0012446512410B7F007E01124246500E1529
:10298A0024C3E5246480948050037524027F407E2A
:10299A0000124246500D0524E524648094824003C7
:1029AA00E4F5247F007E021242465020E52414609A
:1029BA000C14600E240270149004378008900438B6
:1029CA008003900439E014F0E05401F07F807E0027
:1029DA001242465020E52414600C14600E24027042
:1029EA001490043780089004388003900439E00476
:1029FA00F0E05401F07F007E101242465005123D6D
:102A0A0078800C7F007E4012424640030228B67549
:022A1A00740442
:012A1C002297
:103E6900CEA2E713CE1322E014F0E05480F022E052
:103E790004F0E05480F022E0F9FF3395E0FEEF22F0
:0C3E8900E0FB3395E0FAAD03FC0217FAF1
:03373B00122F80CA
:10373E007D347F0A123952EF14F53BC37480953BEA
:10374E00C31314FFE53B2402FB753F0BD200E4FDCF
:10375E001243A7C37480953BC313FB7A00754000D8
:10376E00754101C2007D3412378BE4FBFA7D3512B0
:0D377E00378B7B407A007D367F0A02321ABD
:0E378B007F0A12321A75400075410CD20022DE
:101CF900752208752300E4F52412373B7F0F124241
:041D090014124393DA
:101D0D00E4F525F526F527F528F529F52AF52BF522
:011D1D002C99
:101D1E007D377F0A123952EF24FFF52EEE34FFF590
:101D2E002D90043DE0FF7B007A00792F123D147553
:101D3E00312C90043FE0FF7A007932123D1490046A
:101D4E003EE0FF7A007935123D1475372C90044031
:101D5E00E0FF7A007938123D14753F0AC2007F19F0
:101D6E0012209E7A00792F753F0075401912207B44
:101D7E007F6312209E7A007935753F00754063129D
:101D8E00207B7B807D16E4FF1243A7E523AE2278ED
:101D9E0004123E69D8FBFBAA06754000754116D2A7
:101DAE00007D377F0A12321A74F82523F52374FF4B
:101DBE003522F522E52EC4F8540FC868FFE52DC470
:101DCE0054F048FEC3E49FFFE49EFEC3E5239FEE5E
:101DDE006480F8E522648098500675220875230009
:101DEE0012446512410B7F007E011243675016129A
:101DFE00208E500690043D123E7012209650069092
:101E0E00043F123E707F407E001243675016122030
:101E1E008E500690043D123E781220965006900485
:101E2E003F123E787F007E02124367501E7F207E57
:101E3E0000124367500690043E123E707F027E00F1
:101E4E001243675006900440123E707F807E00124F
:101E5E004367501E7F207E00124367500690043E5B
:101E6E00123E787F027E00124367500690044012A5
:101E7E003E787F007E101242465005123D78800952
:101E8E007F007E40124246500675740402439D90B8
:101E9E000437E0602E124433EF3395E0F5298F2A94
:101EAE00124439EF3395E0F52B8F2C1243E8EF33C4
:101EBE0095E0F5258F261243F0EF3395E0F5278F49
:101ECE0028802C124433EF3395E0F5258F261244EB
:101EDE0039EF3395E0F5278F281243E8EF3395E07D
:101EEE00F5298F2A1243F0EF3395E0F52B8F2C90C6
:101EFE000438E06016C3E49526F526E49525F5250D
:101F0E00C3E4952AF52AE49529F529900439E06071
:101F1E0016C3E49528F528E49527F527C3E4952CF8
:101F2E00F52CE4952BF52BAE25AF2690043D123EF5
:101F3E00898E258F26E5267806123E69D8FBF52672
:101F4E008E2590043E123E802526F526EE3525F58B
:101F5E0025AE27AF28AD03AC021217FA8E278F28B5
:101F6E00E5287806123E69D8FBF5288E27E9123E41
:101F7E00822528F528EE3527F527C3E525648094BC
:101F8E00805005E4F525F526D3E52694FFE5256476
:101F9E0080948040067525007526FFC3E527648072
:101FAE0094805005E4F527F528D3E52894FFE5271E
:101FBE006480948040067527007528FFAE29AF2AED
:101FCE0090043F123E898E298F2AE52A7806123E0A
:101FDE0069D8FBF52A8E29900440123E80252AF5F9
:101FEE002AEE3529F529AE2BAF2CAD03AC02121714
:101FFE00FA8E2B8F2CE52C7806123E69D8FBF52C29
:10200E008E2BE9123E82252CF52CEE352BF52BC3AB
:10201E00E529648094805005E4F529F52AD3E52A54
:10202E0094FFE529648094804006752900752AFF87
:10203E00C3E52B648094805005E4F52BF52CD3E595
:10204E002C94FFE52B648094804006752B00752C34
:10205E00FFAD26E4FF123BC4AD280F123BC4AD2AE0
:0A206E000F123BC4AD2C0F123BC44F
:03207800021D0D39
:10207B0075410075420CD2007F0A1232A5753F0ADA
:10208B00C200227F207E00124367227F027E001255
:0D209B004367227B0F7D0C1243A77B0022C0
:102D4300C9E8B6A8BCFC00C8A1CFFBBCFC00C1AC61
:102D5300B7A2CBD9B6C800CEDE0080000080010048
:102D63008002008003008010008011008012008028
:102D7300130080208021008022802300802480256E
:102D8300008026802700804000804100804200C3ED
:102D9300BFC3EB3130B4CE00C3BFC3EB3135B4CEC8
:102DA30000C3BFC3EB3230B4CE00C3BFC3EB323575
:102DB300B4CE00C3BFC3EB3330B4CE003D00FF2D10
:102DC30043FF2D4AFF2D51FF2D5AFF2D5DFF2D602F
:102DD300FF2D63FF2D66FF2D69FF2D6CFF2D6FFF08
:102DE3002D72FF2D75FF2D7AFF2D7FFF2D84FF2D73
:102DF30089FF2D8CFF2D8FFF2D92FF2D9BFF2DA47F
:062E0300FF2DADFF2DB60E
:1040A300FD75400075410CD20022E014F0E0C364BA
:0C40B30080948022E004F0E0D3648022BE
:03384E00122F80B6
:103851007D387F0A123952EF14F527C374809527FA
:10386100C31314FFE5272402FB753F0BD200E4FDCF
:103871001243A7C374809527C313FB7A00754000D8
:10388100754101C2007D387F0A12321A7BFF7A2D01
:1038910079BF753F0075403D75410075420CD200FE
:0538A1007F0A0232A5C0
:0C23D000752208752300E4F52412384E35
:1023DC007D527F0A123952EF24FFF526EE34FFF5B9
:1023EC0025753F0AC2007B287D0CE4FF1243A7E54C
:1023FC002424391240A3E4FBFA7F0A12321A753FE7
:10240C000AC2007B277D0C7F591243A7E524146078
:10241C000714602D2402703B1240A47B597A007D76
:10242C003C7F0A12321AE524600790043BE0FF80DF
:10243C000590043AE0FFEF243DFD1240A47B6D8033
:10244C000B90043CE0244D1240A37B597A007F0A88
:10245C0012321A753F0AC2007B807D16E4FF1243CC
:10246C00A7E523AE227804CEA2E713CE13D8F8FB4F
:10247C00AA06754000754116D2007D527F0A1232B1
:10248C001A74F82523F52374FF3522F522E526C4AA
:10249C00F8540FC868FFE525C454F048FEC3E49F08
:1024AC00FFE49EFEC3E5239FE5229E50067522089D
:0324BC0075230085
:1024BF0012446512410B7F007E01124246500E15E9
:1024CF0024C3E5246480948050037524027F407EEA
:1024DF0000124246500D0524E52464809482400387
:1024EF00E4F5247F007E02124246502EE52414604C
:1024FF001114601B2402702290043A1240AD501A3E
:10250F00800890043B1240AD5010740FF0800B9078
:10251F00043C1240AD50037404F07F807E001242E1
:10252F00465034E52414601514602024027028905E
:10253F00043A1240B7948F401EE4F0801A90043B87
:10254F001240B7948F4010E4F0800C90043C12407E
:10255F00B794844002E4F07F007E1012424650058B
:10256F00123D78800C7F007E4012424640030223CA
:04257F00DC7574048F
:012583002235
:0300000002318E3C
:0C318E00787FE4F6D8FD7581750231D51C
:10168A00E709F608DFFA8046E709F208DFFA803E42
:10169A0088828C83E709F0A3DFFA8032E309F6082F
:1016AA00DFFA8078E309F208DFFA807088828C8397
:1016BA00E309F0A3DFFA806489828A83E0A3F6084B
:1016CA00DFFA805889828A83E0A3F208DFFA804C25
:1016DA0080D280FA80C680D4806980F280338010FC
:1016EA0080A680EA809A80A880DA80E280CA803365
:1016FA0089828A83ECFAE493A3C8C582C8CCC583DD
:10170A00CCF0A3C8C582C8CCC583CCDFE9DEE780AC
:10171A000D89828A83E493A3F608DFF9ECFAA9F02B
:10172A00EDFB2289828A83ECFAE0A3C8C582C8CC81
:10173A00C583CCF0A3C8C582C8CCC583CCDFEADE9A
:10174A00E880DB89828A83E493A3F208DFF980CCFC
:10175A0088F0EF60010E4E60C388F0ED2402B404F5
:10176A000050B9F582EB2402B4040050AF2323459C
:06177A0082239016DA73D1
:10178000BB010689828A83E0225002E722BBFE0267
:09179000E32289828A83E493229A
:10179900BB010CE58229F582E5833AF583E0225005
:1017A90006E92582F8E622BBFE06E92582F8E2224F
:0D17B900E58229F582E5833AF583E4932269
:1017C600BB010689828A83F0225002F722BBFE0102
:0217D600F322FC
:1017D800F8BB010DE58229F582E5833AF583E8F047
:1017E800225006E92582C8F622BBFE05E92582C8F3
:0217F800F222DB
:1017FA00EF8DF0A4A8F0CF8CF0A428CE8DF0A42E03
:02180A00FE22BC
:10180C00BC000BBE0029EF8DF084FFADF022E4CCC0
:10181C00F875F008EF2FFFEE33FEEC33FCEE9DEC89
:10182C00984005FCEE9DFE0FD5F0E9E4CEFD22EDCF
:10183C00F8F5F0EE8420D21CFEADF075F008EF2F19
:10184C00FFED33FD4007985006D5F0F222C398FD0A
:05185C000FD5F0EA22A7
:10186100BB0110E58229F582E5833AF583E0F5F0C5
:10187100A3E0225009E92582F886F008E622BBFEA2
:101881000AE92582F8E2F5F008E222E5832AF583E8
:08189100E993F5F0A3E99322AD
:061899008A838982E473DA
:10189F00E3F5F009E208B5F06D606B80F3E3F5F066
:1018AF0009E608B5F060605E80F387F009E608B5D9
:1018BF00F054605280F487F009E208B5F0486046B2
:1018CF0080F488828C8387F009E0A3B5F038603606
:1018DF0080F488828C8387F009E493A3B5F02760A6
:1018EF002580F388828C83E3F5F009E0A3B5F01629
:1018FF00601480F388828C83E3F5F009E493A3B539
:10190F00F004600280F20219CA808580E7808E8021
:10191F00D2803C8015806C807E809B80B5808B80D0
:10192F00A1804F8070803A0219D689828A83ECFA9F
:10193F00E493F5F0A3C8C582C8CCC583CCE493A3C8
:10194F00C8C582C8CCC583CCB5F070606E80E18904
:10195F00828A83E493F5F0A3E208B5F05E605C80C1
:10196F00F289828A83E0F5F0A3E608B5F04D604B6B
:10197F0080F389828A83E0F5F0A3E208B5F03C603A
:10198F003A80F389828A83E493F5F0A3E608B5F0F1
:10199F002A602880F2805389828A83ECFAE493F5D7
:1019AF00F0A3C8C582C8CCC583CCE0A3C8C582C884
:1019BF00CCC583CCB5F004600280E27FFFB5F002A6
:1019CF000F2240027F012289828A83ECFAE0F5F030
:1019DF00A3C8C582C8CCC583CCE0A3C8C582C8CC78
:1019EF00C583CCB5F0D560D380E389828A83ECFAC6
:1019FF00E0F5F0A3C8C582C8CCC583CCE493A3C8D7
:101A0F00C582C8CCC583CCB5F0B160AF80E288F099
:101A1F00ED2402B4040050A3F582EB2402B40400B9
:0B1A2F0050992323458223901918735F
:101A3A00E709F60870FA8046E709F20870FA803E6C
:101A4A0088828C83E709F0A370FA807EE309F6089E
:101A5A0070FA8076E309F20870FA806E88828C83C5
:101A6A00E309F0A370FA806289828A83E0A3F60808
:101A7A0070FA805689828A83E0A3F20870FA804A53
:101A8A0080D280FA80C680D4806580F2803180104E
:101A9A0080A680EA809A80A880DA80E280CA8031B3
:101AAA0089828A83ECFAE493A3C8C582C8CCC58329
:101ABA00CCF0A3C8C582C8CCC583CC70E9800D8997
:101ACA00828A83E493A3F60870F9ECFAA9F0EDFB95
:101ADA002289828A83ECFAE0A3C8C582C8CCC5836E
:101AEA00CCF0A3C8C582C8CCC583CC70EA80DD8996
:101AFA00828A83E493A3F20870F980CE88F0ED24F9
:101B0A0002B4040050C4F582EB2402B4040050BAB3
:091B1A002323458223901A8A73EB
:101B2300E3F5F009E208B5F06BDFF58067E3F5F064
:101B330009E608B5F05EDFF5805A87F009E608B5D7
:101B4300F052DFF6804E87F009E208B5F046DFF683
:101B5300804288828C8387F009E0A3B5F036DFF6F4
:101B6300803288828C8387F009E493A3B5F025DF64
:101B7300F5802188828C83E3F5F009E0A3B5F014A6
:101B8300DFF5801088828C83E3F5F009E493A3B535
:101B9300F002DFF4021C52808780E9809080D480B9
:101BA3003E8015806E807E809D80B7808D80A3806F
:101BB300518074803C021C5E89828A83ECFAE49330
:101BC300F5F0A3C8C582C8CCC583CCE493A3C8C52C
:101BD30082C8CCC583CCB5F076DFE3DEE1807089C3
:101BE300828A83E493F5F0A3E208B5F062DFF48020
:101BF3005E89828A83E0F5F0A3E608B5F051DFF54C
:101C0300804D89828A83E0F5F0A3E208B5F040DFD6
:101C1300F5803C89828A83E493F5F0A3E608B5F066
:101C23002EDFF4802A8002805789828A83ECFAE4CB
:101C330093F5F0A3C8C582C8CCC583CCE0A3C8C5BF
:101C430082C8CCC583CCB5F006DFE4DEE280007F3A
:101C5300FFB5F0020F2240027F012289828A83ECC2
:101C6300FAE0F5F0A3C8C582C8CCC583CCE0A3C80D
:101C7300C582C8CCC583CCB5F0D5DFE5DEE380CF24
:101C830089828A83ECFAE0F5F0A3C8C582C8CCC583
:101C930083CCE493A3C8C582C8CCC583CCB5F0AFCD
:101CA300DFE4DEE280A988F0EF60010E4E60ABED69
:101CB3002402B404005098F582EB2402B4040050CB
:0A1CC3008E2323458223901B9A73A1
:101CCD00EF4E6012EF60010EEDBB010B89828A832E
:101CDD00F0A3DFFCDEFA2289F05007F709DFFCA93B
:0C1CED00F022BBFEFCF309DFFCA9F02292
:10319A00023436E493A3F8E493A34003F68001F2E1
:1031AA0008DFF48029E493A3F85407240CC8C33336
:1031BA00C4540F4420C8834004F456800146F6DF05
:1031CA00E4800B0102040810204080903C3DE47E1C
:1031DA00019360BCA3FF543F30E509541FFEE493FA
:1031EA00A360010ECF54C025E060A840B8E493A3C1
:1031FA00FAE493A3F8E493A3C8C582C8CAC583CAEC
:10320A00F0A3C8C582C8CAC583CADFE9DEE780BEA3
:013C7400004F
:00000001FF
